{
  "contractName": "DigitalAssetMarket",
  "abi": [
    {
      "inputs": [],
      "stateMutability": "nonpayable",
      "type": "constructor"
    },
    {
      "inputs": [],
      "name": "InsufficientFunds",
      "type": "error"
    },
    {
      "inputs": [],
      "name": "NotAvailable",
      "type": "error"
    },
    {
      "inputs": [],
      "name": "Unauthorized",
      "type": "error"
    },
    {
      "inputs": [
        {
          "internalType": "uint256",
          "name": "",
          "type": "uint256"
        }
      ],
      "name": "digitalAssets",
      "outputs": [
        {
          "internalType": "uint256",
          "name": "ownerId",
          "type": "uint256"
        },
        {
          "internalType": "string",
          "name": "name",
          "type": "string"
        },
        {
          "internalType": "string",
          "name": "description",
          "type": "string"
        },
        {
          "internalType": "uint256",
          "name": "price",
          "type": "uint256"
        },
        {
          "internalType": "string",
          "name": "category",
          "type": "string"
        },
        {
          "internalType": "bool",
          "name": "isAvailable",
          "type": "bool"
        }
      ],
      "stateMutability": "view",
      "type": "function",
      "constant": true
    },
    {
      "inputs": [],
      "name": "manager",
      "outputs": [
        {
          "internalType": "address",
          "name": "",
          "type": "address"
        }
      ],
      "stateMutability": "view",
      "type": "function",
      "constant": true
    },
    {
      "inputs": [
        {
          "internalType": "uint256",
          "name": "",
          "type": "uint256"
        },
        {
          "internalType": "uint256",
          "name": "",
          "type": "uint256"
        }
      ],
      "name": "transactionHistory",
      "outputs": [
        {
          "internalType": "uint256",
          "name": "assetId",
          "type": "uint256"
        },
        {
          "internalType": "uint256",
          "name": "buyerId",
          "type": "uint256"
        },
        {
          "internalType": "uint256",
          "name": "sellerId",
          "type": "uint256"
        },
        {
          "internalType": "uint256",
          "name": "purchaseTime",
          "type": "uint256"
        }
      ],
      "stateMutability": "view",
      "type": "function",
      "constant": true
    },
    {
      "inputs": [
        {
          "internalType": "address",
          "name": "",
          "type": "address"
        }
      ],
      "name": "userWallets",
      "outputs": [
        {
          "internalType": "uint256",
          "name": "",
          "type": "uint256"
        }
      ],
      "stateMutability": "view",
      "type": "function",
      "constant": true
    },
    {
      "inputs": [
        {
          "internalType": "uint256",
          "name": "",
          "type": "uint256"
        }
      ],
      "name": "users",
      "outputs": [
        {
          "internalType": "string",
          "name": "name",
          "type": "string"
        },
        {
          "internalType": "string",
          "name": "email",
          "type": "string"
        },
        {
          "internalType": "address payable",
          "name": "wallet",
          "type": "address"
        }
      ],
      "stateMutability": "view",
      "type": "function",
      "constant": true
    },
    {
      "inputs": [
        {
          "internalType": "uint256",
          "name": "assetId",
          "type": "uint256"
        },
        {
          "internalType": "uint256",
          "name": "ownerId",
          "type": "uint256"
        },
        {
          "internalType": "string",
          "name": "name",
          "type": "string"
        },
        {
          "internalType": "string",
          "name": "description",
          "type": "string"
        },
        {
          "internalType": "uint256",
          "name": "price",
          "type": "uint256"
        },
        {
          "internalType": "string",
          "name": "category",
          "type": "string"
        }
      ],
      "name": "createDigitalAsset",
      "outputs": [],
      "stateMutability": "nonpayable",
      "type": "function"
    },
    {
      "inputs": [
        {
          "internalType": "uint256",
          "name": "userId",
          "type": "uint256"
        },
        {
          "internalType": "string",
          "name": "name",
          "type": "string"
        },
        {
          "internalType": "string",
          "name": "email",
          "type": "string"
        },
        {
          "internalType": "address payable",
          "name": "wallet",
          "type": "address"
        }
      ],
      "name": "createUser",
      "outputs": [],
      "stateMutability": "nonpayable",
      "type": "function"
    },
    {
      "inputs": [
        {
          "internalType": "uint256",
          "name": "assetId",
          "type": "uint256"
        }
      ],
      "name": "purchaseDigitalAsset",
      "outputs": [
        {
          "components": [
            {
              "internalType": "uint256",
              "name": "assetId",
              "type": "uint256"
            },
            {
              "internalType": "uint256",
              "name": "buyerId",
              "type": "uint256"
            },
            {
              "internalType": "uint256",
              "name": "sellerId",
              "type": "uint256"
            },
            {
              "internalType": "uint256",
              "name": "purchaseTime",
              "type": "uint256"
            }
          ],
          "internalType": "struct DigitalAssetMarket.Transaction",
          "name": "",
          "type": "tuple"
        }
      ],
      "stateMutability": "payable",
      "type": "function",
      "payable": true
    },
    {
      "inputs": [
        {
          "internalType": "uint256",
          "name": "userId",
          "type": "uint256"
        }
      ],
      "name": "getUserAsset",
      "outputs": [
        {
          "internalType": "uint256[]",
          "name": "",
          "type": "uint256[]"
        }
      ],
      "stateMutability": "view",
      "type": "function",
      "constant": true
    },
    {
      "inputs": [
        {
          "internalType": "uint256",
          "name": "userId",
          "type": "uint256"
        }
      ],
      "name": "getUserTransactionHistory",
      "outputs": [
        {
          "components": [
            {
              "internalType": "uint256",
              "name": "assetId",
              "type": "uint256"
            },
            {
              "internalType": "uint256",
              "name": "buyerId",
              "type": "uint256"
            },
            {
              "internalType": "uint256",
              "name": "sellerId",
              "type": "uint256"
            },
            {
              "internalType": "uint256",
              "name": "purchaseTime",
              "type": "uint256"
            }
          ],
          "internalType": "struct DigitalAssetMarket.Transaction[]",
          "name": "",
          "type": "tuple[]"
        }
      ],
      "stateMutability": "view",
      "type": "function",
      "constant": true
    },
    {
      "inputs": [
        {
          "internalType": "uint256",
          "name": "assetId",
          "type": "uint256"
        },
        {
          "internalType": "bool",
          "name": "value",
          "type": "bool"
        }
      ],
      "name": "changeAvailability",
      "outputs": [],
      "stateMutability": "nonpayable",
      "type": "function"
    }
  ],
  "bytecode": "0x608060405234801561001057600080fd5b50336000806101000a81548173ffffffffffffffffffffffffffffffffffffffff021916908373ffffffffffffffffffffffffffffffffffffffff160217905550611c11806100606000396000f3fe60806040526004361061009c5760003560e01c806363e6ffdd1161006457806363e6ffdd1461019a5780637c0f9349146101d7578063a173193814610214578063bd1b02211461023d578063ee6ec41d1461027f578063fcdf9439146102bf5761009c565b80630ee94a1a146100a157806325d3e4b5146100ca57806334f61552146100f3578063365b98b214610130578063481c6a751461016f575b600080fd5b3480156100ad57600080fd5b506100c860048036038101906100c39190611330565b6102ef565b005b3480156100d657600080fd5b506100f160048036038101906100ec91906113cf565b6104f2565b005b3480156100ff57600080fd5b5061011a600480360381019061011591906114b0565b61068d565b60405161012791906115f0565b60405180910390f35b34801561013c57600080fd5b50610157600480360381019061015291906114b0565b610727565b604051610166939291906116a9565b60405180910390f35b34801561017b57600080fd5b50610184610881565b604051610191919061170f565b60405180910390f35b3480156101a657600080fd5b506101c160048036038101906101bc9190611756565b6108a5565b6040516101ce9190611792565b60405180910390f35b3480156101e357600080fd5b506101fe60048036038101906101f991906114b0565b6108bd565b60405161020b919061185c565b60405180910390f35b34801561022057600080fd5b5061023b600480360381019061023691906118b6565b61092b565b005b34801561024957600080fd5b50610264600480360381019061025f91906114b0565b6109eb565b60405161027696959493929190611905565b60405180910390f35b34801561028b57600080fd5b506102a660048036038101906102a1919061197b565b610bcc565b6040516102b694939291906119bb565b60405180910390f35b6102d960048036038101906102d491906114b0565b610c19565b6040516102e69190611a55565b60405180910390f35b60008054906101000a900473ffffffffffffffffffffffffffffffffffffffff1673ffffffffffffffffffffffffffffffffffffffff163373ffffffffffffffffffffffffffffffffffffffff1614610374576040517f82b4290000000000000000000000000000000000000000000000000000000000815260040160405180910390fd5b60405180608001604052808481526020018381526020018273ffffffffffffffffffffffffffffffffffffffff168152602001600067ffffffffffffffff8111156103c2576103c16111a7565b5b6040519080825280602002602001820160405280156103f05781602001602082028036833780820191505090505b5081525060026000868152602001908152602001600020600082015181600001908051906020019061042392919061102a565b50602082015181600101908051906020019061044092919061102a565b5060408201518160020160006101000a81548173ffffffffffffffffffffffffffffffffffffffff021916908373ffffffffffffffffffffffffffffffffffffffff16021790555060608201518160030190805190602001906104a49291906110b0565b5090505083600360008373ffffffffffffffffffffffffffffffffffffffff1673ffffffffffffffffffffffffffffffffffffffff1681526020019081526020016000208190555050505050565b60008054906101000a900473ffffffffffffffffffffffffffffffffffffffff1673ffffffffffffffffffffffffffffffffffffffff163373ffffffffffffffffffffffffffffffffffffffff1614610577576040517f82b4290000000000000000000000000000000000000000000000000000000000815260040160405180910390fd5b6040518060c0016040528086815260200185815260200184815260200183815260200182815260200160011515815250600160008881526020019081526020016000206000820151816000015560208201518160010190805190602001906105e092919061102a565b5060408201518160020190805190602001906105fd92919061102a565b5060608201518160030155608082015181600401908051906020019061062492919061102a565b5060a08201518160050160006101000a81548160ff02191690831515021790555090505060026000868152602001908152602001600020600301869080600181540180825580915050600190039060005260206000200160009091909190915055505050505050565b606060046000838152602001908152602001600020805480602002602001604051908101604052809291908181526020016000905b8282101561071c5783829060005260206000209060040201604051806080016040529081600082015481526020016001820154815260200160028201548152602001600382015481525050815260200190600101906106c2565b505050509050919050565b600260205280600052604060002060009150905080600001805461074a90611a9f565b80601f016020809104026020016040519081016040528092919081815260200182805461077690611a9f565b80156107c35780601f10610798576101008083540402835291602001916107c3565b820191906000526020600020905b8154815290600101906020018083116107a657829003601f168201915b5050505050908060010180546107d890611a9f565b80601f016020809104026020016040519081016040528092919081815260200182805461080490611a9f565b80156108515780601f1061082657610100808354040283529160200191610851565b820191906000526020600020905b81548152906001019060200180831161083457829003601f168201915b5050505050908060020160009054906101000a900473ffffffffffffffffffffffffffffffffffffffff16905083565b60008054906101000a900473ffffffffffffffffffffffffffffffffffffffff1681565b60036020528060005260406000206000915090505481565b60606002600083815260200190815260200160002060030180548060200260200160405190810160405280929190818152602001828054801561091f57602002820191906000526020600020905b81548152602001906001019080831161090b575b50505050509050919050565b6001600083815260200190815260200160002060000154600360003373ffffffffffffffffffffffffffffffffffffffff1673ffffffffffffffffffffffffffffffffffffffff16815260200190815260200160002054146109b9576040517f82b4290000000000000000000000000000000000000000000000000000000000815260040160405180910390fd5b806001600084815260200190815260200160002060050160006101000a81548160ff0219169083151502179055505050565b6001602052806000526040600020600091509050806000015490806001018054610a1490611a9f565b80601f0160208091040260200160405190810160405280929190818152602001828054610a4090611a9f565b8015610a8d5780601f10610a6257610100808354040283529160200191610a8d565b820191906000526020600020905b815481529060010190602001808311610a7057829003601f168201915b505050505090806002018054610aa290611a9f565b80601f0160208091040260200160405190810160405280929190818152602001828054610ace90611a9f565b8015610b1b5780601f10610af057610100808354040283529160200191610b1b565b820191906000526020600020905b815481529060010190602001808311610afe57829003601f168201915b505050505090806003015490806004018054610b3690611a9f565b80601f0160208091040260200160405190810160405280929190818152602001828054610b6290611a9f565b8015610baf5780601f10610b8457610100808354040283529160200191610baf565b820191906000526020600020905b815481529060010190602001808311610b9257829003601f168201915b5050505050908060050160009054906101000a900460ff16905086565b60046020528160005260406000208181548110610be857600080fd5b9060005260206000209060040201600091509150508060000154908060010154908060020154908060030154905084565b610c216110fd565b6001600083815260200190815260200160002060050160009054906101000a900460ff16610c7b576040517fd9b9141900000000000000000000000000000000000000000000000000000000815260040160405180910390fd5b6001600083815260200190815260200160002060030154341015610ccb576040517f356680b700000000000000000000000000000000000000000000000000000000815260040160405180910390fd5b6000600360003373ffffffffffffffffffffffffffffffffffffffff1673ffffffffffffffffffffffffffffffffffffffff1681526020019081526020016000205490506000600160008581526020019081526020016000206000015490506002600082815260200190815260200160002060020160009054906101000a900473ffffffffffffffffffffffffffffffffffffffff1673ffffffffffffffffffffffffffffffffffffffff166108fc349081150290604051600060405180830381858888f19350505050158015610da6573d6000803e3d6000fd5b50610dc66002600083815260200190815260200160002060030185610f4b565b8160016000868152602001908152602001600020600001819055506002600083815260200190815260200160002060030184908060018154018082558091505060019003906000526020600020016000909190919091505560006001600086815260200190815260200160002060050160006101000a81548160ff021916908315150217905550600060405180608001604052808681526020018481526020018381526020014281525090506004600084815260200190815260200160002081908060018154018082558091505060019003906000526020600020906004020160009091909190915060008201518160000155602082015181600101556040820151816002015560608201518160030155505060046000838152602001908152602001600020819080600181540180825580915050600190039060005260206000209060040201600090919091909150600082015181600001556020820151816001015560408201518160020155606082015181600301555050809350505050919050565b60005b82805490508110156110255781838281548110610f6e57610f6d611ad1565b5b906000526020600020015414156110125760018380549050610f909190611b2f565b8114610fe6578260018480549050610fa89190611b2f565b81548110610fb957610fb8611ad1565b5b9060005260206000200154838281548110610fd757610fd6611ad1565b5b90600052602060002001819055505b82805480610ff757610ff6611b63565b5b60019003818190600052602060002001600090559055611025565b808061101d90611b92565b915050610f4e565b505050565b82805461103690611a9f565b90600052602060002090601f016020900481019282611058576000855561109f565b82601f1061107157805160ff191683800117855561109f565b8280016001018555821561109f579182015b8281111561109e578251825591602001919060010190611083565b5b5090506110ac9190611125565b5090565b8280548282559060005260206000209081019282156110ec579160200282015b828111156110eb5782518255916020019190600101906110d0565b5b5090506110f99190611125565b5090565b6040518060800160405280600081526020016000815260200160008152602001600081525090565b5b8082111561113e576000816000905550600101611126565b5090565b6000604051905090565b600080fd5b600080fd5b6000819050919050565b61116981611156565b811461117457600080fd5b50565b60008135905061118681611160565b92915050565b600080fd5b600080fd5b6000601f19601f8301169050919050565b7f4e487b7100000000000000000000000000000000000000000000000000000000600052604160045260246000fd5b6111df82611196565b810181811067ffffffffffffffff821117156111fe576111fd6111a7565b5b80604052505050565b6000611211611142565b905061121d82826111d6565b919050565b600067ffffffffffffffff82111561123d5761123c6111a7565b5b61124682611196565b9050602081019050919050565b82818337600083830152505050565b600061127561127084611222565b611207565b90508281526020810184848401111561129157611290611191565b5b61129c848285611253565b509392505050565b600082601f8301126112b9576112b861118c565b5b81356112c9848260208601611262565b91505092915050565b600073ffffffffffffffffffffffffffffffffffffffff82169050919050565b60006112fd826112d2565b9050919050565b61130d816112f2565b811461131857600080fd5b50565b60008135905061132a81611304565b92915050565b6000806000806080858703121561134a5761134961114c565b5b600061135887828801611177565b945050602085013567ffffffffffffffff81111561137957611378611151565b5b611385878288016112a4565b935050604085013567ffffffffffffffff8111156113a6576113a5611151565b5b6113b2878288016112a4565b92505060606113c38782880161131b565b91505092959194509250565b60008060008060008060c087890312156113ec576113eb61114c565b5b60006113fa89828a01611177565b965050602061140b89828a01611177565b955050604087013567ffffffffffffffff81111561142c5761142b611151565b5b61143889828a016112a4565b945050606087013567ffffffffffffffff81111561145957611458611151565b5b61146589828a016112a4565b935050608061147689828a01611177565b92505060a087013567ffffffffffffffff81111561149757611496611151565b5b6114a389828a016112a4565b9150509295509295509295565b6000602082840312156114c6576114c561114c565b5b60006114d484828501611177565b91505092915050565b600081519050919050565b600082825260208201905092915050565b6000819050602082019050919050565b61151281611156565b82525050565b60808201600082015161152e6000850182611509565b5060208201516115416020850182611509565b5060408201516115546040850182611509565b5060608201516115676060850182611509565b50505050565b60006115798383611518565b60808301905092915050565b6000602082019050919050565b600061159d826114dd565b6115a781856114e8565b93506115b2836114f9565b8060005b838110156115e35781516115ca888261156d565b97506115d583611585565b9250506001810190506115b6565b5085935050505092915050565b6000602082019050818103600083015261160a8184611592565b905092915050565b600081519050919050565b600082825260208201905092915050565b60005b8381101561164c578082015181840152602081019050611631565b8381111561165b576000848401525b50505050565b600061166c82611612565b611676818561161d565b935061168681856020860161162e565b61168f81611196565b840191505092915050565b6116a3816112f2565b82525050565b600060608201905081810360008301526116c38186611661565b905081810360208301526116d78185611661565b90506116e6604083018461169a565b949350505050565b60006116f9826112d2565b9050919050565b611709816116ee565b82525050565b60006020820190506117246000830184611700565b92915050565b611733816116ee565b811461173e57600080fd5b50565b6000813590506117508161172a565b92915050565b60006020828403121561176c5761176b61114c565b5b600061177a84828501611741565b91505092915050565b61178c81611156565b82525050565b60006020820190506117a76000830184611783565b92915050565b600081519050919050565b600082825260208201905092915050565b6000819050602082019050919050565b60006117e58383611509565b60208301905092915050565b6000602082019050919050565b6000611809826117ad565b61181381856117b8565b935061181e836117c9565b8060005b8381101561184f57815161183688826117d9565b9750611841836117f1565b925050600181019050611822565b5085935050505092915050565b6000602082019050818103600083015261187681846117fe565b905092915050565b60008115159050919050565b6118938161187e565b811461189e57600080fd5b50565b6000813590506118b08161188a565b92915050565b600080604083850312156118cd576118cc61114c565b5b60006118db85828601611177565b92505060206118ec858286016118a1565b9150509250929050565b6118ff8161187e565b82525050565b600060c08201905061191a6000830189611783565b818103602083015261192c8188611661565b905081810360408301526119408187611661565b905061194f6060830186611783565b81810360808301526119618185611661565b905061197060a08301846118f6565b979650505050505050565b600080604083850312156119925761199161114c565b5b60006119a085828601611177565b92505060206119b185828601611177565b9150509250929050565b60006080820190506119d06000830187611783565b6119dd6020830186611783565b6119ea6040830185611783565b6119f76060830184611783565b95945050505050565b608082016000820151611a166000850182611509565b506020820151611a296020850182611509565b506040820151611a3c6040850182611509565b506060820151611a4f6060850182611509565b50505050565b6000608082019050611a6a6000830184611a00565b92915050565b7f4e487b7100000000000000000000000000000000000000000000000000000000600052602260045260246000fd5b60006002820490506001821680611ab757607f821691505b60208210811415611acb57611aca611a70565b5b50919050565b7f4e487b7100000000000000000000000000000000000000000000000000000000600052603260045260246000fd5b7f4e487b7100000000000000000000000000000000000000000000000000000000600052601160045260246000fd5b6000611b3a82611156565b9150611b4583611156565b925082821015611b5857611b57611b00565b5b828203905092915050565b7f4e487b7100000000000000000000000000000000000000000000000000000000600052603160045260246000fd5b6000611b9d82611156565b91507fffffffffffffffffffffffffffffffffffffffffffffffffffffffffffffffff821415611bd057611bcf611b00565b5b60018201905091905056fea26469706673582212201d7da36b1c6a1ebddd7259e9823e6d419cd9bd74acdfc7ccb85fa8aa385c68bd64736f6c63430008090033",
  "immutableReferences": {},
  "source": "// SPDX-License-Identifier: MIT\npragma solidity ^0.8.9;\n\ncontract DigitalAssetMarket {\n    address public manager;\n\n    struct DigitalAsset {\n        uint256 ownerId;\n        string name;\n        string description;\n        uint256 price;\n        string category;\n        bool isAvailable;\n    }\n\n\n    struct UserInfo {\n        string name;\n        string email;\n        address payable wallet;\n        uint256[] ownedAssetIds;\n\n    }\n\n    struct Transaction {\n        uint256 assetId;\n        uint256 buyerId;\n        uint256 sellerId;\n        uint256 purchaseTime;\n    }\n\n\n\n    mapping(uint256 => DigitalAsset) public digitalAssets;\n    mapping(uint256 => UserInfo) public users;\n    mapping(address => uint256) public userWallets;\n    mapping(uint256 => Transaction[]) public transactionHistory;\n\n    error Unauthorized();\n    error InsufficientFunds();\n    error NotAvailable();\n\n    modifier onlyManager {\n        if (msg.sender != manager) {\n            revert Unauthorized();\n        }\n        _;\n    }\n\n    constructor() {\n        manager = msg.sender;\n\n    }\n\n    function createDigitalAsset(\n        uint256 assetId,\n        uint256 ownerId,\n        string memory name,\n        string memory description,\n        uint256 price,\n        string memory category\n    ) public onlyManager {\n        digitalAssets[assetId] = DigitalAsset(ownerId,name, description, price, category, true);\n        users[ownerId].ownedAssetIds.push(assetId);\n    }\n\n\n    function createUser(\n        uint256 userId,\n        string memory name,\n        string memory email,\n        address payable wallet\n    ) public onlyManager {\n        users[userId] = UserInfo(name,email,wallet, new uint256[](0));\n        userWallets[wallet] = userId;\n    }\n\n\n    function purchaseDigitalAsset(uint256 assetId) public payable returns (Transaction memory) {\n        if (!digitalAssets[assetId].isAvailable) {\n            revert NotAvailable();\n        }\n        if (msg.value < digitalAssets[assetId].price) {\n            revert InsufficientFunds();\n        }\n\n        uint buyerId = userWallets[msg.sender];\n        uint previousOwnerId = digitalAssets[assetId].ownerId;\n        // forward money to asset's owner\n        users[previousOwnerId].wallet.transfer(msg.value);\n        // remove the asset from the owner's asset list\n        removeValueFromArray(users[previousOwnerId].ownedAssetIds,assetId);\n        // transfer the ownership to the buyer\n        digitalAssets[assetId].ownerId = buyerId;\n        // add the asset to the buyer's asset list\n        users[buyerId].ownedAssetIds.push(assetId);\n\n        digitalAssets[assetId].isAvailable = false;\n        // add a new transaction to history\n\n        Transaction memory transaction = Transaction(assetId,buyerId,previousOwnerId,block.timestamp);\n        transactionHistory[buyerId].push(transaction);\n        transactionHistory[previousOwnerId].push(transaction);\n        return transaction;\n    }\n\n\n    function getUserAsset(uint256 userId) public view returns (uint256[] memory)  {\n        return users[userId].ownedAssetIds;\n    }\n\n    function getUserTransactionHistory(uint256 userId) public view returns (Transaction[] memory)  {\n        return transactionHistory[userId];\n    }\n\n    function changeAvailability(uint256 assetId, bool value) public {\n        if (userWallets[msg.sender] != digitalAssets[assetId].ownerId) {\n            revert Unauthorized();\n        }\n\n        digitalAssets[assetId].isAvailable = value;\n    }\n\n    function removeValueFromArray(uint256[] storage arr, uint256 value) private {\n        for (uint256 i = 0; i < arr.length; i++) {\n            if (arr[i] == value) {\n                if (i != arr.length - 1) {\n                    arr[i] = arr[arr.length - 1];\n                }\n                arr.pop();\n                break;\n            }\n        }\n    }\n\n\n\n}",
  "sourcePath": "/Users/tuandoan/CODE/trading-platform/backend/contracts/DigitalAssetMarket.sol",
  "compiler": {
    "name": "solc",
    "version": "0.8.9+commit.e5eed63a.Emscripten.clang"
  },
  "schemaVersion": "3.4.16",
  "updatedAt": "2023-10-10T11:49:14.977Z",
  "networkType": "ethereum",
  "devdoc": {
    "kind": "dev",
    "methods": {},
    "version": 1
  },
  "userdoc": {
    "kind": "user",
    "methods": {},
    "version": 1
  }
}