{
  "contractName": "DigitalAssetMarket",
  "abi": [
    {
      "inputs": [],
      "stateMutability": "nonpayable",
      "type": "constructor"
    },
    {
      "inputs": [],
      "name": "InsufficientFunds",
      "type": "error"
    },
    {
      "inputs": [],
      "name": "NotAvailable",
      "type": "error"
    },
    {
      "inputs": [],
      "name": "Unauthorized",
      "type": "error"
    },
    {
      "inputs": [
        {
          "internalType": "uint256",
          "name": "",
          "type": "uint256"
        }
      ],
      "name": "digitalAssets",
      "outputs": [
        {
          "internalType": "uint256",
          "name": "ownerId",
          "type": "uint256"
        },
        {
          "internalType": "string",
          "name": "name",
          "type": "string"
        },
        {
          "internalType": "string",
          "name": "description",
          "type": "string"
        },
        {
          "internalType": "uint256",
          "name": "price",
          "type": "uint256"
        },
        {
          "internalType": "string",
          "name": "category",
          "type": "string"
        },
        {
          "internalType": "bool",
          "name": "isAvailable",
          "type": "bool"
        }
      ],
      "stateMutability": "view",
      "type": "function",
      "constant": true
    },
    {
      "inputs": [],
      "name": "manager",
      "outputs": [
        {
          "internalType": "address",
          "name": "",
          "type": "address"
        }
      ],
      "stateMutability": "view",
      "type": "function",
      "constant": true
    },
    {
      "inputs": [
        {
          "internalType": "uint256",
          "name": "",
          "type": "uint256"
        },
        {
          "internalType": "uint256",
          "name": "",
          "type": "uint256"
        }
      ],
      "name": "transactionHistory",
      "outputs": [
        {
          "internalType": "uint256",
          "name": "assetId",
          "type": "uint256"
        },
        {
          "internalType": "uint256",
          "name": "buyerId",
          "type": "uint256"
        },
        {
          "internalType": "uint256",
          "name": "purchaseTime",
          "type": "uint256"
        }
      ],
      "stateMutability": "view",
      "type": "function",
      "constant": true
    },
    {
      "inputs": [
        {
          "internalType": "address",
          "name": "",
          "type": "address"
        }
      ],
      "name": "userWallets",
      "outputs": [
        {
          "internalType": "uint256",
          "name": "",
          "type": "uint256"
        }
      ],
      "stateMutability": "view",
      "type": "function",
      "constant": true
    },
    {
      "inputs": [
        {
          "internalType": "uint256",
          "name": "",
          "type": "uint256"
        }
      ],
      "name": "users",
      "outputs": [
        {
          "internalType": "string",
          "name": "name",
          "type": "string"
        },
        {
          "internalType": "string",
          "name": "email",
          "type": "string"
        },
        {
          "internalType": "address payable",
          "name": "wallet",
          "type": "address"
        }
      ],
      "stateMutability": "view",
      "type": "function",
      "constant": true
    },
    {
      "inputs": [
        {
          "internalType": "uint256",
          "name": "assetId",
          "type": "uint256"
        },
        {
          "internalType": "uint256",
          "name": "ownerId",
          "type": "uint256"
        },
        {
          "internalType": "string",
          "name": "name",
          "type": "string"
        },
        {
          "internalType": "string",
          "name": "description",
          "type": "string"
        },
        {
          "internalType": "uint256",
          "name": "price",
          "type": "uint256"
        },
        {
          "internalType": "string",
          "name": "category",
          "type": "string"
        }
      ],
      "name": "createDigitalAsset",
      "outputs": [],
      "stateMutability": "nonpayable",
      "type": "function"
    },
    {
      "inputs": [
        {
          "internalType": "uint256",
          "name": "userId",
          "type": "uint256"
        },
        {
          "internalType": "string",
          "name": "name",
          "type": "string"
        },
        {
          "internalType": "string",
          "name": "email",
          "type": "string"
        },
        {
          "internalType": "address payable",
          "name": "wallet",
          "type": "address"
        }
      ],
      "name": "createUser",
      "outputs": [],
      "stateMutability": "nonpayable",
      "type": "function"
    },
    {
      "inputs": [
        {
          "internalType": "uint256",
          "name": "assetId",
          "type": "uint256"
        }
      ],
      "name": "purchaseDigitalAsset",
      "outputs": [
        {
          "components": [
            {
              "internalType": "uint256",
              "name": "ownerId",
              "type": "uint256"
            },
            {
              "internalType": "string",
              "name": "name",
              "type": "string"
            },
            {
              "internalType": "string",
              "name": "description",
              "type": "string"
            },
            {
              "internalType": "uint256",
              "name": "price",
              "type": "uint256"
            },
            {
              "internalType": "string",
              "name": "category",
              "type": "string"
            },
            {
              "internalType": "bool",
              "name": "isAvailable",
              "type": "bool"
            }
          ],
          "internalType": "struct DigitalAssetMarket.DigitalAsset",
          "name": "",
          "type": "tuple"
        }
      ],
      "stateMutability": "payable",
      "type": "function",
      "payable": true
    },
    {
      "inputs": [
        {
          "internalType": "uint256",
          "name": "userId",
          "type": "uint256"
        }
      ],
      "name": "getUserAsset",
      "outputs": [
        {
          "internalType": "uint256[]",
          "name": "",
          "type": "uint256[]"
        }
      ],
      "stateMutability": "view",
      "type": "function",
      "constant": true
    },
    {
      "inputs": [
        {
          "internalType": "uint256",
          "name": "userId",
          "type": "uint256"
        }
      ],
      "name": "getUserTransactionHistory",
      "outputs": [
        {
          "components": [
            {
              "internalType": "uint256",
              "name": "assetId",
              "type": "uint256"
            },
            {
              "internalType": "uint256",
              "name": "buyerId",
              "type": "uint256"
            },
            {
              "internalType": "uint256",
              "name": "purchaseTime",
              "type": "uint256"
            }
          ],
          "internalType": "struct DigitalAssetMarket.TransactionHistory[]",
          "name": "",
          "type": "tuple[]"
        }
      ],
      "stateMutability": "view",
      "type": "function",
      "constant": true
    },
    {
      "inputs": [
        {
          "internalType": "uint256",
          "name": "assetId",
          "type": "uint256"
        },
        {
          "internalType": "bool",
          "name": "value",
          "type": "bool"
        }
      ],
      "name": "changeAvailability",
      "outputs": [],
      "stateMutability": "nonpayable",
      "type": "function"
    }
  ],
  "bytecode": "0x608060405234801561001057600080fd5b50336000806101000a81548173ffffffffffffffffffffffffffffffffffffffff021916908373ffffffffffffffffffffffffffffffffffffffff160217905550611e16806100606000396000f3fe60806040526004361061009c5760003560e01c806363e6ffdd1161006457806363e6ffdd1461019a5780637c0f9349146101d7578063a173193814610214578063bd1b02211461023d578063ee6ec41d1461027f578063fcdf9439146102be5761009c565b80630ee94a1a146100a157806325d3e4b5146100ca57806334f61552146100f3578063365b98b214610130578063481c6a751461016f575b600080fd5b3480156100ad57600080fd5b506100c860048036038101906100c391906114b4565b6102ee565b005b3480156100d657600080fd5b506100f160048036038101906100ec9190611553565b6104f1565b005b3480156100ff57600080fd5b5061011a60048036038101906101159190611634565b61068c565b6040516101279190611761565b60405180910390f35b34801561013c57600080fd5b5061015760048036038101906101529190611634565b61071c565b6040516101669392919061181a565b60405180910390f35b34801561017b57600080fd5b50610184610876565b6040516101919190611880565b60405180910390f35b3480156101a657600080fd5b506101c160048036038101906101bc91906118c7565b61089a565b6040516101ce9190611903565b60405180910390f35b3480156101e357600080fd5b506101fe60048036038101906101f99190611634565b6108b2565b60405161020b91906119cd565b60405180910390f35b34801561022057600080fd5b5061023b60048036038101906102369190611a27565b610920565b005b34801561024957600080fd5b50610264600480360381019061025f9190611634565b6109e0565b60405161027696959493929190611a76565b60405180910390f35b34801561028b57600080fd5b506102a660048036038101906102a19190611aec565b610bc1565b6040516102b593929190611b2c565b60405180910390f35b6102d860048036038101906102d39190611634565b610c08565b6040516102e59190611c53565b60405180910390f35b60008054906101000a900473ffffffffffffffffffffffffffffffffffffffff1673ffffffffffffffffffffffffffffffffffffffff163373ffffffffffffffffffffffffffffffffffffffff1614610373576040517f82b4290000000000000000000000000000000000000000000000000000000000815260040160405180910390fd5b60405180608001604052808481526020018381526020018273ffffffffffffffffffffffffffffffffffffffff168152602001600067ffffffffffffffff8111156103c1576103c061132b565b5b6040519080825280602002602001820160405280156103ef5781602001602082028036833780820191505090505b5081525060026000868152602001908152602001600020600082015181600001908051906020019061042292919061119e565b50602082015181600101908051906020019061043f92919061119e565b5060408201518160020160006101000a81548173ffffffffffffffffffffffffffffffffffffffff021916908373ffffffffffffffffffffffffffffffffffffffff16021790555060608201518160030190805190602001906104a3929190611224565b5090505083600360008373ffffffffffffffffffffffffffffffffffffffff1673ffffffffffffffffffffffffffffffffffffffff1681526020019081526020016000208190555050505050565b60008054906101000a900473ffffffffffffffffffffffffffffffffffffffff1673ffffffffffffffffffffffffffffffffffffffff163373ffffffffffffffffffffffffffffffffffffffff1614610576576040517f82b4290000000000000000000000000000000000000000000000000000000000815260040160405180910390fd5b6040518060c0016040528086815260200185815260200184815260200183815260200182815260200160011515815250600160008881526020019081526020016000206000820151816000015560208201518160010190805190602001906105df92919061119e565b5060408201518160020190805190602001906105fc92919061119e565b5060608201518160030155608082015181600401908051906020019061062392919061119e565b5060a08201518160050160006101000a81548160ff02191690831515021790555090505060026000868152602001908152602001600020600301869080600181540180825580915050600190039060005260206000200160009091909190915055505050505050565b606060046000838152602001908152602001600020805480602002602001604051908101604052809291908181526020016000905b8282101561071157838290600052602060002090600302016040518060600160405290816000820154815260200160018201548152602001600282015481525050815260200190600101906106c1565b505050509050919050565b600260205280600052604060002060009150905080600001805461073f90611ca4565b80601f016020809104026020016040519081016040528092919081815260200182805461076b90611ca4565b80156107b85780601f1061078d576101008083540402835291602001916107b8565b820191906000526020600020905b81548152906001019060200180831161079b57829003601f168201915b5050505050908060010180546107cd90611ca4565b80601f01602080910402602001604051908101604052809291908181526020018280546107f990611ca4565b80156108465780601f1061081b57610100808354040283529160200191610846565b820191906000526020600020905b81548152906001019060200180831161082957829003601f168201915b5050505050908060020160009054906101000a900473ffffffffffffffffffffffffffffffffffffffff16905083565b60008054906101000a900473ffffffffffffffffffffffffffffffffffffffff1681565b60036020528060005260406000206000915090505481565b60606002600083815260200190815260200160002060030180548060200260200160405190810160405280929190818152602001828054801561091457602002820191906000526020600020905b815481526020019060010190808311610900575b50505050509050919050565b6001600083815260200190815260200160002060000154600360003373ffffffffffffffffffffffffffffffffffffffff1673ffffffffffffffffffffffffffffffffffffffff16815260200190815260200160002054146109ae576040517f82b4290000000000000000000000000000000000000000000000000000000000815260040160405180910390fd5b806001600084815260200190815260200160002060050160006101000a81548160ff0219169083151502179055505050565b6001602052806000526040600020600091509050806000015490806001018054610a0990611ca4565b80601f0160208091040260200160405190810160405280929190818152602001828054610a3590611ca4565b8015610a825780601f10610a5757610100808354040283529160200191610a82565b820191906000526020600020905b815481529060010190602001808311610a6557829003601f168201915b505050505090806002018054610a9790611ca4565b80601f0160208091040260200160405190810160405280929190818152602001828054610ac390611ca4565b8015610b105780601f10610ae557610100808354040283529160200191610b10565b820191906000526020600020905b815481529060010190602001808311610af357829003601f168201915b505050505090806003015490806004018054610b2b90611ca4565b80601f0160208091040260200160405190810160405280929190818152602001828054610b5790611ca4565b8015610ba45780601f10610b7957610100808354040283529160200191610ba4565b820191906000526020600020905b815481529060010190602001808311610b8757829003601f168201915b5050505050908060050160009054906101000a900460ff16905086565b60046020528160005260406000208181548110610bdd57600080fd5b9060005260206000209060030201600091509150508060000154908060010154908060020154905083565b610c10611271565b6001600083815260200190815260200160002060050160009054906101000a900460ff16610c6a576040517fd9b9141900000000000000000000000000000000000000000000000000000000815260040160405180910390fd5b6001600083815260200190815260200160002060030154341015610cba576040517f356680b700000000000000000000000000000000000000000000000000000000815260040160405180910390fd5b6000600360003373ffffffffffffffffffffffffffffffffffffffff1673ffffffffffffffffffffffffffffffffffffffff1681526020019081526020016000205490506000600160008581526020019081526020016000206000015490506002600082815260200190815260200160002060020160009054906101000a900473ffffffffffffffffffffffffffffffffffffffff1673ffffffffffffffffffffffffffffffffffffffff166108fc349081150290604051600060405180830381858888f19350505050158015610d95573d6000803e3d6000fd5b50610db560026000838152602001908152602001600020600301856110bf565b8160016000868152602001908152602001600020600001819055506002600083815260200190815260200160002060030184908060018154018082558091505060019003906000526020600020016000909190919091505560006001600086815260200190815260200160002060050160006101000a81548160ff0219169083151502179055506004600083815260200190815260200160002060405180606001604052808681526020018481526020014281525090806001815401808255809150506001900390600052602060002090600302016000909190919091506000820151816000015560208201518160010155604082015181600201555050600160008581526020019081526020016000206040518060c001604052908160008201548152602001600182018054610eeb90611ca4565b80601f0160208091040260200160405190810160405280929190818152602001828054610f1790611ca4565b8015610f645780601f10610f3957610100808354040283529160200191610f64565b820191906000526020600020905b815481529060010190602001808311610f4757829003601f168201915b50505050508152602001600282018054610f7d90611ca4565b80601f0160208091040260200160405190810160405280929190818152602001828054610fa990611ca4565b8015610ff65780601f10610fcb57610100808354040283529160200191610ff6565b820191906000526020600020905b815481529060010190602001808311610fd957829003601f168201915b505050505081526020016003820154815260200160048201805461101990611ca4565b80601f016020809104026020016040519081016040528092919081815260200182805461104590611ca4565b80156110925780601f1061106757610100808354040283529160200191611092565b820191906000526020600020905b81548152906001019060200180831161107557829003601f168201915b505050505081526020016005820160009054906101000a900460ff16151515158152505092505050919050565b60005b828054905081101561119957818382815481106110e2576110e1611cd6565b5b9060005260206000200154141561118657600183805490506111049190611d34565b811461115a57826001848054905061111c9190611d34565b8154811061112d5761112c611cd6565b5b906000526020600020015483828154811061114b5761114a611cd6565b5b90600052602060002001819055505b8280548061116b5761116a611d68565b5b60019003818190600052602060002001600090559055611199565b808061119190611d97565b9150506110c2565b505050565b8280546111aa90611ca4565b90600052602060002090601f0160209004810192826111cc5760008555611213565b82601f106111e557805160ff1916838001178555611213565b82800160010185558215611213579182015b828111156112125782518255916020019190600101906111f7565b5b50905061122091906112a9565b5090565b828054828255906000526020600020908101928215611260579160200282015b8281111561125f578251825591602001919060010190611244565b5b50905061126d91906112a9565b5090565b6040518060c0016040528060008152602001606081526020016060815260200160008152602001606081526020016000151581525090565b5b808211156112c25760008160009055506001016112aa565b5090565b6000604051905090565b600080fd5b600080fd5b6000819050919050565b6112ed816112da565b81146112f857600080fd5b50565b60008135905061130a816112e4565b92915050565b600080fd5b600080fd5b6000601f19601f8301169050919050565b7f4e487b7100000000000000000000000000000000000000000000000000000000600052604160045260246000fd5b6113638261131a565b810181811067ffffffffffffffff821117156113825761138161132b565b5b80604052505050565b60006113956112c6565b90506113a1828261135a565b919050565b600067ffffffffffffffff8211156113c1576113c061132b565b5b6113ca8261131a565b9050602081019050919050565b82818337600083830152505050565b60006113f96113f4846113a6565b61138b565b90508281526020810184848401111561141557611414611315565b5b6114208482856113d7565b509392505050565b600082601f83011261143d5761143c611310565b5b813561144d8482602086016113e6565b91505092915050565b600073ffffffffffffffffffffffffffffffffffffffff82169050919050565b600061148182611456565b9050919050565b61149181611476565b811461149c57600080fd5b50565b6000813590506114ae81611488565b92915050565b600080600080608085870312156114ce576114cd6112d0565b5b60006114dc878288016112fb565b945050602085013567ffffffffffffffff8111156114fd576114fc6112d5565b5b61150987828801611428565b935050604085013567ffffffffffffffff81111561152a576115296112d5565b5b61153687828801611428565b92505060606115478782880161149f565b91505092959194509250565b60008060008060008060c087890312156115705761156f6112d0565b5b600061157e89828a016112fb565b965050602061158f89828a016112fb565b955050604087013567ffffffffffffffff8111156115b0576115af6112d5565b5b6115bc89828a01611428565b945050606087013567ffffffffffffffff8111156115dd576115dc6112d5565b5b6115e989828a01611428565b93505060806115fa89828a016112fb565b92505060a087013567ffffffffffffffff81111561161b5761161a6112d5565b5b61162789828a01611428565b9150509295509295509295565b60006020828403121561164a576116496112d0565b5b6000611658848285016112fb565b91505092915050565b600081519050919050565b600082825260208201905092915050565b6000819050602082019050919050565b611696816112da565b82525050565b6060820160008201516116b2600085018261168d565b5060208201516116c5602085018261168d565b5060408201516116d8604085018261168d565b50505050565b60006116ea838361169c565b60608301905092915050565b6000602082019050919050565b600061170e82611661565b611718818561166c565b93506117238361167d565b8060005b8381101561175457815161173b88826116de565b9750611746836116f6565b925050600181019050611727565b5085935050505092915050565b6000602082019050818103600083015261177b8184611703565b905092915050565b600081519050919050565b600082825260208201905092915050565b60005b838110156117bd5780820151818401526020810190506117a2565b838111156117cc576000848401525b50505050565b60006117dd82611783565b6117e7818561178e565b93506117f781856020860161179f565b6118008161131a565b840191505092915050565b61181481611476565b82525050565b6000606082019050818103600083015261183481866117d2565b9050818103602083015261184881856117d2565b9050611857604083018461180b565b949350505050565b600061186a82611456565b9050919050565b61187a8161185f565b82525050565b60006020820190506118956000830184611871565b92915050565b6118a48161185f565b81146118af57600080fd5b50565b6000813590506118c18161189b565b92915050565b6000602082840312156118dd576118dc6112d0565b5b60006118eb848285016118b2565b91505092915050565b6118fd816112da565b82525050565b600060208201905061191860008301846118f4565b92915050565b600081519050919050565b600082825260208201905092915050565b6000819050602082019050919050565b6000611956838361168d565b60208301905092915050565b6000602082019050919050565b600061197a8261191e565b6119848185611929565b935061198f8361193a565b8060005b838110156119c05781516119a7888261194a565b97506119b283611962565b925050600181019050611993565b5085935050505092915050565b600060208201905081810360008301526119e7818461196f565b905092915050565b60008115159050919050565b611a04816119ef565b8114611a0f57600080fd5b50565b600081359050611a21816119fb565b92915050565b60008060408385031215611a3e57611a3d6112d0565b5b6000611a4c858286016112fb565b9250506020611a5d85828601611a12565b9150509250929050565b611a70816119ef565b82525050565b600060c082019050611a8b60008301896118f4565b8181036020830152611a9d81886117d2565b90508181036040830152611ab181876117d2565b9050611ac060608301866118f4565b8181036080830152611ad281856117d2565b9050611ae160a0830184611a67565b979650505050505050565b60008060408385031215611b0357611b026112d0565b5b6000611b11858286016112fb565b9250506020611b22858286016112fb565b9150509250929050565b6000606082019050611b4160008301866118f4565b611b4e60208301856118f4565b611b5b60408301846118f4565b949350505050565b600082825260208201905092915050565b6000611b7f82611783565b611b898185611b63565b9350611b9981856020860161179f565b611ba28161131a565b840191505092915050565b611bb6816119ef565b82525050565b600060c083016000830151611bd4600086018261168d565b5060208301518482036020860152611bec8282611b74565b91505060408301518482036040860152611c068282611b74565b9150506060830151611c1b606086018261168d565b5060808301518482036080860152611c338282611b74565b91505060a0830151611c4860a0860182611bad565b508091505092915050565b60006020820190508181036000830152611c6d8184611bbc565b905092915050565b7f4e487b7100000000000000000000000000000000000000000000000000000000600052602260045260246000fd5b60006002820490506001821680611cbc57607f821691505b60208210811415611cd057611ccf611c75565b5b50919050565b7f4e487b7100000000000000000000000000000000000000000000000000000000600052603260045260246000fd5b7f4e487b7100000000000000000000000000000000000000000000000000000000600052601160045260246000fd5b6000611d3f826112da565b9150611d4a836112da565b925082821015611d5d57611d5c611d05565b5b828203905092915050565b7f4e487b7100000000000000000000000000000000000000000000000000000000600052603160045260246000fd5b6000611da2826112da565b91507fffffffffffffffffffffffffffffffffffffffffffffffffffffffffffffffff821415611dd557611dd4611d05565b5b60018201905091905056fea2646970667358221220891d144dab4a3fcc9db8078374fd70a798f4b9fe28f52ab45df85a26baf07db064736f6c63430008090033",
  "immutableReferences": {},
  "source": "// SPDX-License-Identifier: MIT\npragma solidity ^0.8.9;\n\ncontract DigitalAssetMarket {\n    address public manager;\n\n    struct DigitalAsset {\n        uint256 ownerId;\n        string name;\n        string description;\n        uint256 price;\n        string category;\n        bool isAvailable;\n    }\n\n\n    struct UserInfo {\n        string name;\n        string email;\n        address payable wallet;\n        uint256[] ownedAssetIds;\n\n    }\n\n    struct TransactionHistory {\n        uint256 assetId;\n        uint256 buyerId;\n        uint256 purchaseTime;\n    }\n\n\n\n    mapping(uint256 => DigitalAsset) public digitalAssets;\n    mapping(uint256 => UserInfo) public users;\n    mapping(address => uint256) public userWallets;\n    mapping(uint256 => TransactionHistory[]) public transactionHistory;\n\n    error Unauthorized();\n    error InsufficientFunds();\n    error NotAvailable();\n\n    modifier onlyManager {\n        if (msg.sender != manager) {\n            revert Unauthorized();\n        }\n        _;\n    }\n\n    constructor() {\n        manager = msg.sender;\n\n    }\n\n    function createDigitalAsset(\n        uint256 assetId,\n        uint256 ownerId,\n        string memory name,\n        string memory description,\n        uint256 price,\n        string memory category\n    ) public onlyManager {\n        digitalAssets[assetId] = DigitalAsset(ownerId,name, description, price, category, true);\n        users[ownerId].ownedAssetIds.push(assetId);\n    }\n\n\n    function createUser(\n        uint256 userId,\n        string memory name,\n        string memory email,\n        address payable wallet\n    ) public onlyManager {\n        users[userId] = UserInfo(name,email,wallet, new uint256[](0));\n        userWallets[wallet] = userId;\n    }\n\n\n    function purchaseDigitalAsset(uint256 assetId) public payable returns (DigitalAsset memory) {\n        if (!digitalAssets[assetId].isAvailable) {\n            revert NotAvailable();\n        }\n        if (msg.value < digitalAssets[assetId].price) {\n            revert InsufficientFunds();\n        }\n\n        uint buyerId = userWallets[msg.sender];\n        uint previousOwnerId = digitalAssets[assetId].ownerId;\n        // forward money to asset's owner\n        users[previousOwnerId].wallet.transfer(msg.value);\n        // remove the asset from the owner's asset list\n        removeValueFromArray(users[previousOwnerId].ownedAssetIds,assetId);\n        // transfer the ownership to the buyer\n        digitalAssets[assetId].ownerId = buyerId;\n        // add the asset to the buyer's asset list\n        users[buyerId].ownedAssetIds.push(assetId);\n\n        digitalAssets[assetId].isAvailable = false;\n        // add a new transaction to history\n        transactionHistory[buyerId].push(TransactionHistory(assetId,buyerId,block.timestamp));\n\n        return digitalAssets[assetId];\n    }\n\n\n    function getUserAsset(uint256 userId) public view returns (uint256[] memory)  {\n        return users[userId].ownedAssetIds;\n    }\n\n    function getUserTransactionHistory(uint256 userId) public view returns (TransactionHistory[] memory)  {\n        return transactionHistory[userId];\n    }\n\n    function changeAvailability(uint256 assetId, bool value) public {\n        if (userWallets[msg.sender] != digitalAssets[assetId].ownerId) {\n            revert Unauthorized();\n        }\n\n        digitalAssets[assetId].isAvailable = value;\n    }\n\n    function removeValueFromArray(uint256[] storage arr, uint256 value) private {\n        for (uint256 i = 0; i < arr.length; i++) {\n            if (arr[i] == value) {\n                if (i != arr.length - 1) {\n                    arr[i] = arr[arr.length - 1];\n                }\n                arr.pop();\n                break;\n            }\n        }\n    }\n\n\n\n}",
  "sourcePath": "/Users/tuandoan/CODE/trading-platform/backend/contracts/DigitalAssetMarket.sol",
  "compiler": {
    "name": "solc",
    "version": "0.8.9+commit.e5eed63a.Emscripten.clang"
  },
  "schemaVersion": "3.4.16",
  "updatedAt": "2023-10-10T05:43:42.256Z",
  "networkType": "ethereum",
  "devdoc": {
    "kind": "dev",
    "methods": {},
    "version": 1
  },
  "userdoc": {
    "kind": "user",
    "methods": {},
    "version": 1
  }
}